:100000000C9462000C948A000C948A000C948A0070
:100010000C948A000C948A000C948A000C948A0038
:100020000C948A000C948A000C948A000C9446026A
:100030000C948A000C948A000C948A000C948A0018
:100040000C94D6050C948A000C948A000C948A00B7
:100050000C948A000C948A000C948A000C948A00F8
:100060000C948A000C948A00000000080002010031
:100070000003040700000000000000000102040863
:100080001020408001020408102001020408102002
:10009000040404040404040402020202020203032E
:1000A00003030303000000002300260029000000D2
:1000B0000000250028002B0000000000240027007D
:1000C0002A006C0111241FBECFEFD8E0DEBFCDBFE8
:1000D00011E0A0E0B1E0ECEBF5E102C005900D927B
:1000E000A831B107D9F722E0A8E1B1E001C01D9223
:1000F000AB31B207E1F710E0C4ECD0E004C02297C6
:10010000FE010E94B30AC23CD107C9F70E9403084E
:100110000C94DC0A0C9400000895CF93DF93C82F51
:10012000D62F60E00E941E0782E090E00E947706D2
:1001300061E08C2F0E941E078AE090E00E94770603
:1001400060E08C2F0E941E0720EA36E841E050E074
:1001500061E08D2FDF91CF910C947D070E948D007F
:100160002AE330E040E050E00E94650A21153105A5
:100170004105510521F427EE33E040E050E0CA018B
:10018000B9010895EF920F931F9360E089E00E94F8
:10019000E50661E088E00E94E50660E086E00E94F6
:1001A000E50660E087E00E94E506E12C05E010E04E
:1001B00024E030E043E050E062E070E088E191E06C
:1001C0000E94410400E010E020E030E040E050E018
:1001D00060E070E088E191E00E949F04609114016A
:1001E0007091150181E192E00E943A04409116015C
:1001F000841741F0609114017091150181E192E042
:100200000E943D0486E00E945407019781F087E038
:100210000E945407019759F086E00E945407892BE9
:10022000A9F087E00E945407892B81F02EC041EA93
:1002300054EC68E471E284EE91E00E94E50164E62A
:1002400070E080E090E00E944F06DCCF69E070E053
:1002500088E090E00E94AE00603171058105910553
:100260004CF44CE854E166EB72E184EE91E00E94BC
:10027000E50104C084EE91E00E94EC0164E670E0C8
:1002800080E090E00E944F06C7CF4CE051E064EF61
:1002900071E088E191E00E94B00487E00E94540779
:1002A000892B39F464E670E080E090E00E944F060C
:1002B000F4CF40E052E469E071E084EE91E00E9406
:1002C000E50144E051E064EF71E088E191E01F91C5
:1002D0000F91EF900C94B004CF93DF932CE04DE09E
:1002E0006BE084EE91E00E94BE01C8E1D1E0CE0156
:1002F0000E940203188A1F86A99681E0CC3BD8078A
:10030000B1F7DF91CF9108950F931F93CF93DF93B0
:10031000EC0100E010E0488159816A817B81002E68
:1003200004C076956795579547950A94D2F7642F40
:1003300061708C810E941E0700000000000061E0D7
:100340008D810E941E0700000000000060E08D818A
:100350000E941E070F5F1F4F0E311105E1F661E08D
:100360008E810E941E0700000000000060E08E8168
:10037000DF91CF911F910F910C941E07CF93DF93C4
:10038000EC01862F188219821A821B826C834D839E
:100390002E8361E00E94E50661E08D810E94E50602
:1003A00061E08E810E94E50660E08C810E941E075C
:1003B00060E08D810E941E0760E08E810E941E0712
:1003C000CE01DF91CF910C948401FC0140835183D5
:1003D000628373830C9484014FEF5FEF6FEF7FE3D1
:1003E000FC0140835183628373830C948401EF92F8
:1003F000FF920F931F93CF93DF931F92CDB7DEB77A
:100400007C0149830E949C036AE570E0C7010E9459
:10041000D5038EE190E0F701968F858F80ED97E010
:100420009087878300E010E024E832E4018F128F88
:10043000238F348F0AE118EF22EC3DE3058B168BF6
:10044000278B308F178E10A211A212A28DE290E09E
:1004500094838383118A128A138A148A11861286DE
:10046000138614861682158217A2498140A70F9021
:10047000DF91CF911F910F91FF90EF900895FC01B4
:1004800027853089620F731F0C94D5031F920F923A
:100490000FB60F9211242F933F934F935F936F9357
:1004A0007F938F939F93AF93BF93EF93FF9380912D
:1004B000EC0187FF05C010928500109284001AC0DD
:1004C0002091EC01332727FD30958091EB0190E0DE
:1004D000281739077CF48091EC01992787FD9095C6
:1004E000FC01EE0FFF1FE80FF91FE351FE4F808163
:1004F00086FD15C08091EC018F5F8093EC01209107
:10050000EC01332727FD30958091EB0190E028170F
:100510003907BCF48091EC018C305CF112C0809101
:10052000EC01992787FD9095FC01EE0FFF1FE80F66
:10053000F91FE351FE4F808160E08F730E941E0718
:10054000D9CF8091840090918500049680349C4995
:1005500018F480E49CE905C08091840090918500A6
:10056000049690938900809388008FEF8093EC012C
:1005700038C020918400309185008091EC0199274A
:1005800087FD9095FC01EE0FFF1FE80FF91FE35167
:10059000FE4F81819281820F931F909389008093F7
:1005A00088008091EC01992787FD9095FC01EE0F62
:1005B000FF1FE80FF91FE351FE4F808186FF11C036
:1005C0008091EC01992787FD9095FC01EE0FFF1FAC
:1005D000E80FF91FE351FE4F808161E08F730E94A5
:1005E0001E07FF91EF91BF91AF919F918F917F91E6
:1005F0006F915F914F913F912F910F900FBE0F9090
:100600001F9018952091EB012C30A0F431E0320FAF
:100610003093EB01FC012083822F90E0FC01EE0F70
:10062000FF1FE80FF91FE351FE4F88EB9BE0928319
:10063000818308952FEFFC0120830895DF92EF92CC
:10064000FF920F931F93CF93DF93EC01D62E7A0185
:10065000890188818C3008F066C061E08D2D0E9490
:10066000E5068881A82FB0E0FD01EE0FFF1FEA0F1D
:10067000FB1FE351FE4F2D2D2F739081907C922B09
:10068000908360E272E06E197F0977FF02C06D5FB0
:100690007F4F7595679575956795698340E659E035
:1006A000401B510B57FF02C04D5F5F4F559547955B
:1006B000559547954A836CE00E94590A9CE0899FB2
:1006C000B001112420E030E0A901460F571FFA01C4
:1006D000EE0FFF1FE40FF51FE351FE4F908196FDD3
:1006E00016C02F5F3F4F2C30310571F781110FC0BD
:1006F0001092800082E08093810010928500109219
:100700008400B19A80916F00826080936F0088812D
:1007100090E0FC01EE0FFF1FE80FF91FE351FE4FC1
:100720008081806480838881DF91CF911F910F91B8
:10073000FF90EF90DF90089520E639E040E252E02C
:100740000C941E03FC0180818C3070F5918128E8A7
:1007500030E0291B310997FD3395220F331F220FFB
:10076000331F621773077CF0928128E532E0291B62
:10077000310997FD3395220F331F220F331F621764
:1007800073070CF49B0122503109220F331F4FB71E
:10079000F89490E0FC01EE0FFF1FE80FF91FE35102
:1007A000FE4F328321834FBF08954F925F926F9225
:1007B0007F92AF92BF92CF92DF92EF92FF920F9310
:1007C0001F93CF93DF93EC01603282E078070CF047
:1007D00040C077FD06C0653B71052CF064EB70E00E
:1007E00002C060E070E0898128E830E0281B310910
:1007F00087FD3395220F331F220F331F5901CC245D
:10080000B7FCC094DC2C882777FD8095982F2A812F
:1008100048E552E0421B510927FD5395440F551FEF
:10082000440F551F2A01662457FC6094762C7F9252
:100830006F925F924F9214EBE12EF12C00E010E0EA
:1008400020E030E0A9010E9412080F900F900F9055
:100850000F90CE01DF91CF911F910F91FF90EF90FC
:10086000DF90CF90BF90AF907F906F905F904F9050
:100870000C94A203CB010C94C60ACB01642F0C94F8
:10088000CE0AAF92BF92CF92DF92EF92FF920F9378
:100890001F93CF93DF93EC016A01590140E00E945E
:1008A000F70140E0B601CE0189960E94F70140E0D1
:1008B000B501CE018E5A9F4F0E94F70140E0B8016A
:1008C000CE0185589F4F0E94F701E1101CC0FE0128
:1008D000E455FF4F8AE590E09183808332969183BF
:1008E0008083329691838083CE54DF4F99838883AF
:1008F000DF91CF911F910F91FF90EF90DF90CF90FC
:10090000BF90AF900895E12CF12C00E010E0B80109
:1009100081E192E00E943A0490E0813891050CF068
:100920009A95FE01EE0DFF1D908B87870F5F1F4F7D
:1009300089E2E80EF11C0430110549F7C8CF0F9386
:100940001F93FC01708B678751AF40AFEF59FF4F8A
:1009500031832083B996118300831F910F910895ED
:100960002F923F924F925F926F927F928F929F92BF
:10097000AF92BF92CF92DF92EF92FF920F931F93AD
:10098000CF93DF93CDB7DEB728970FB6F894DEBFCD
:100990000FBECDBF1C0149835A836B3071050CF427
:1009A000C9C06B01EE24D7FCE094FE2CC701B60150
:1009B0000E945A0920E030E040E251E40E94BF0862
:1009C0002B013C0129812B833A813C83510100E0BA
:1009D00010E0AB81BC818D919D91BC83AB834501BF
:1009E000BCEB8B0E911CF101E00FF11FE455FF4FA2
:1009F00020813181821B930BBC01882777FD809574
:100A0000982F0E945A09A30192010E94BF08F40185
:100A100060837183828393830E5F1F4FF4E0AF0E78
:100A2000B11C08301105A9F60E94200691012C5432
:100A30003F4F3C832B836C0D7D1D8E1D9F1DD90167
:100A40006D937D938D939C93139744244394512CE1
:100A5000F101E854FF4FFE83ED830E942006EB81F5
:100A6000FC81008111812281338160177107820727
:100A7000930708F071C00E942006665F7F4F8F4F7A
:100A80009F4FAD81BE816D937D938D939C93139702
:100A90003101810118861F824201AA2497FCA0948B
:100AA000BA2CEF81F885E20DF31DE455FF4F8081EC
:100AB0009181BC01882777FD8095982F0E945A0963
:100AC0006B017C01C501B4010E945A09F801E4548C
:100AD000FF4F20813181428153810E94E6099B01B1
:100AE000AC01C701B6010E945B080E942709C3013F
:100AF0000E943F02EF81F8853296F887EF830C5F02
:100B00001F4FF9E26F0E711C2F8138852830310597
:100B100041F60E942006AD81BE810D911D912D915F
:100B20003C91601771078207930798F3BFEF4B1A48
:100B30005B0A93CFE980FA8000E010E0D7016D9165
:100B40007D917D01C101800F911F0E943F02075DD1
:100B50001F4F043A110591F7E981FA8180E090E096
:100B600021913191D101A80FB91FA455BF4F2D93E9
:100B70003C9302968830910599F728960FB6F89421
:100B8000DEBF0FBECDBFDF91CF911F910F91FF90C0
:100B9000EF90DF90CF90BF90AF909F908F907F901D
:100BA0006F905F904F903F902F9008951F920F92FB
:100BB0000FB60F9211242F933F938F939F93AF9370
:100BC000BF938091130290911402A0911502B091ED
:100BD00016023091120223E0230F2D3720F40196E4
:100BE000A11DB11D05C026E8230F0296A11DB11D50
:100BF000209312028093130290931402A093150283
:100C0000B09316028091170290911802A0911902D8
:100C1000B0911A020196A11DB11D80931702909305
:100C20001802A0931902B0931A02BF91AF919F913D
:100C30008F913F912F910F900FBE0F901F9018959D
:100C40002FB7F894609113027091140280911502ED
:100C5000909116022FBF08953FB7F8948091170224
:100C600090911802A0911902B0911A0226B5A89B82
:100C700005C02F3F19F00196A11DB11D3FBF66278A
:100C8000782F892F9A2F620F711D811D911D42E0CF
:100C9000660F771F881F991F4A95D1F70895CF9245
:100CA000DF92EF92FF92CF93DF936B017C010E9462
:100CB0002C06EB01C114D104E104F10489F00E9477
:100CC00059080E942C066C1B7D0B683E734090F304
:100CD00081E0C81AD108E108F108C851DC4FEACF19
:100CE000DF91CF91FF90EF90DF90CF900895019723
:100CF00039F0880F991F880F991F02970197F1F714
:100D00000895789484B5826084BD84B5816084BD83
:100D100085B5826085BD85B5816085BDEEE6F0E074
:100D2000808181608083E1E8F0E0108280818260D0
:100D30008083808181608083E0E8F0E08081816051
:100D40008083E1EBF0E0808184608083E0EBF0E081
:100D5000808181608083EAE7F0E080818460808325
:100D600080818260808380818160808380818068CF
:100D700080831092C1000895833081F028F481307F
:100D800099F08230A1F008958730A9F08830B9F049
:100D90008430D1F4809180008F7D03C080918000E9
:100DA0008F7780938000089584B58F7702C084B5D3
:100DB0008F7D84BD08958091B0008F7703C08091AE
:100DC000B0008F7D8093B0000895CF93DF9390E0C3
:100DD000FC01E458FF4F2491FC01E057FF4F849140
:100DE000882349F190E0880F991FFC01E854FF4FD8
:100DF000A591B49182559F4FFC01C591D4919FB7A5
:100E0000611108C0F8948C91209582238C9388817D
:100E100082230AC0623051F4F8948C91322F3095BD
:100E200083238C938881822B888304C0F8948C91CF
:100E3000822B8C939FBFDF91CF9108950F931F93C7
:100E4000CF93DF931F92CDB7DEB7282F30E0F901A3
:100E5000E859FF4F8491F901E458FF4F1491F901CB
:100E6000E057FF4F04910023C9F0882321F06983E4
:100E70000E94BC066981E02FF0E0EE0FFF1FE255F3
:100E8000FF4FA591B4919FB7F8948C91611103C065
:100E90001095812301C0812B8C939FBF0F90DF9110
:100EA000CF911F910F910895CF93DF93282F30E0BA
:100EB000F901E859FF4F8491F901E458FF4FD491AB
:100EC000F901E057FF4FC491CC2391F081110E94AA
:100ED000BC06EC2FF0E0EE0FFF1FEC55FF4FA59185
:100EE000B4912C912D2381E090E021F480E002C0A8
:100EF00080E090E0DF91CF910895CF92DF92EF9262
:100F0000FF920F931F93CF93DF9390E0FC01E4587F
:100F1000FF4FD491FC01E057FF4F7491611102C063
:100F2000C0E001C0CD2FDA01C901BF70672F70E0AA
:100F3000660F771F6C557F4F00E010E09801FB01B2
:100F4000E590F490F70140814D234C131EC06801D9
:100F500079014FEFC41AD40AE40AF40A08171907F2
:100F60002A073B0709F442C097018601E8CF6801D0
:100F70007901FFEFCF1ADF0AEF0AFF0A08171907F6
:100F80002A073B0799F197018601FB01E590F49050
:100F9000F70140814D234C13EACF801B910BA20B2C
:100FA000B30B20E030E0A901FB01E590F490F701DC
:100FB000F080FD22FC120AC0281739074A075B0798
:100FC000A9F02F5F3F4F4F4F5F4FEECFA8E1B0E04A
:100FD0000E94840A605F7F4F8F4F9F4F24E0969559
:100FE0008795779567952A95D1F703C060E070E003
:100FF000CB01DF91CF911F910F91FF90EF90DF9088
:10100000CF90089508950E9481060E9402080E94D0
:10101000C200C0E0D0E00E948C002097E1F30E9463
:101020000000F9CF4F925F926F927F92AF92BF9282
:10103000CF92DF92EF92FF920F931F93CF93DF93A4
:10104000CDB7DEB729013A01621B730B840B950BF8
:1010500029893A894B895C892A193B094C095D0920
:10106000298B3A8B4B8B5C8B9B01AC0169897A890C
:101070008B899C890E94490AE418F508060917091A
:10108000A80197010E94650A2A0D3B1D4C1D5D1D9C
:10109000CA01B901DF91CF911F910F91FF90EF909D
:1010A000DF90CF90BF90AF907F906F905F904F9008
:1010B000089508955058BB27AA270ED04DC13ED1A0
:1010C00030F043D120F031F49F3F11F41EF433C1CE
:1010D0000EF4E095E7FB29C1E92F4FD180F3BA1751
:1010E000620773078407950718F071F49EF567C1CE
:1010F0000EF4E0950B2EBA2FA02D0B01B901900133
:101100000C01CA01A0011124FF27591B99F0593F76
:1011100050F4503E68F11A16F040A22F232F342FBE
:101120004427585FF3CF469537952795A795F0400C
:101130005395C9F77EF41F16BA0B620B730B840B21
:10114000BAF09150A1F0FF0FBB1F661F771F881FD9
:10115000C2F70EC0BA0F621F731F841F48F4879531
:1011600077956795B795F7959E3F08F0B3CF939520
:10117000880F08F09927EE0F9795879508950CD062
:10118000EBC0E3D040F0DAD030F021F45F3F19F04B
:10119000CCC0511115C1CFC0F0D098F39923C9F339
:1011A0005523B1F3951B550BBB27AA27621773076D
:1011B000840738F09F5F5F4F220F331F441FAA1F21
:1011C000A9F333D00E2E3AF0E0E830D091505040E1
:1011D000E695001CCAF729D0FE2F27D0660F771F8F
:1011E000881FBB1F261737074807AB07B0E809F071
:1011F000BB0B802DBF01FF2793585F4F2AF09E3F06
:10120000510568F092C0DCC05F3FECF3983EDCF320
:10121000869577956795B795F7959F5FC9F7880F7E
:10122000911D9695879597F90895E1E0660F771FD0
:10123000881FBB1F621773078407BA0720F0621B61
:10124000730B840BBA0BEE1F88F7E095089504D05A
:101250006894B111B5C0089598D088F09F5790F068
:10126000B92F9927B751A0F0D1F0660F771F881FCB
:10127000991F1AF0BA95C9F712C0B13081F09FD00A
:10128000B1E008959CC0672F782F8827B85F39F0A8
:10129000B93FCCF3869577956795B395D9F73EF42A
:1012A00090958095709561957F4F8F4F9F4F0895D2
:1012B000E89409C097FB3EF49095809570956195F0
:1012C0007F4F8F4F9F4F9923A9F0F92F96E9BB27A6
:1012D0009395F695879577956795B795F111F8CF22
:1012E000FAF4BB0F11F460FF1BC06F5F7F4F8F4F8D
:1012F0009F4F16C0882311F096E911C0772321F083
:101300009EE8872F762F05C0662371F096E8862F1A
:1013100070E060E02AF09A95660F771F881FDAF771
:10132000880F9695879597F9089597F99F6780E8B4
:1013300070E060E008959FEF80EC089500240A9427
:101340001616170618060906089500240A941216A0
:101350001306140605060895092E0394000C11F4D3
:10136000882352F0BB0F40F4BF2B11F460FF04C080
:101370006F5F7F4F8F4F9F4F089557FD9058440FD9
:10138000551F59F05F3F71F04795880F97FB991FE4
:1013900061F09F3F79F087950895121613061406A1
:1013A000551FF2CF4695F1DF08C01616170618062E
:1013B000991FF1CF86957105610508940895E89409
:1013C000BB2766277727CB0197F908950BD0C4CFA9
:1013D000B5DF28F0BADF18F0952309F0A6CFABCF20
:1013E0001124EECFCADFA0F3959FD1F3950F50E003
:1013F000551F629FF001729FBB27F00DB11D639FC7
:10140000AA27F00DB11DAA1F649F6627B00DA11D6C
:10141000661F829F2227B00DA11D621F739FB00D12
:10142000A11D621F839FA00D611D221F749F332782
:10143000A00D611D231F849F600D211D822F762F1B
:101440006A2F11249F5750408AF0E1F088234AF018
:10145000EE0FFF1FBB1F661F771F881F9150504064
:10146000A9F79E3F510570F060CFAACF5F3FECF324
:10147000983EDCF3869577956795B795F795E79550
:101480009F5FC1F7FE2B880F911D9695879597F961
:101490000895DB018F939F930E94840ABF91AF91BF
:1014A000A29F800D911DA39F900DB29F900D1124BE
:1014B0000895991B79E004C0991F961708F0961BB0
:1014C000881F7A95C9F780950895052E97FB1EF41D
:1014D00000940E947C0A57FD07D00E948F0A07FCE7
:1014E00003D04EF40C947C0A50954095309521958C
:1014F0003F4F4F4F5F4F0895909580957095619540
:101500007F4F8F4F9F4F08950E94B70AA59F900D60
:10151000B49F900DA49F800D911D11240895A1E208
:101520001A2EAA1BBB1BFD010DC0AA1FBB1FEE1F5D
:10153000FF1FA217B307E407F50720F0A21BB30BA8
:10154000E40BF50B661F771F881F991F1A9469F724
:1015500060957095809590959B01AC01BD01CF0180
:101560000895EE0FFF1F0590F491E02D0994A29FBE
:10157000B001B39FC001A39F700D811D1124911D67
:10158000B29F700D811D1124911D0895F999FECF10
:1015900092BD81BDF89A992780B50895262FF999B3
:1015A000FECF1FBA92BD81BD20BD0FB6F894FA9A46
:0C15B000F99A0FBE01960895F894FFCF41
:1015BC00010000005A005A005A005A0046006E0002
:0815CC003C007800050024003A
:00000001FF
