:100000000C9464000C948C000C948C000C948C0068
:100010000C948C000C948C000C948C000C948C0030
:100020000C948C000C948C000C948C000C94340B6D
:100030000C948C000C948C000C948C000C948C0010
:100040000C94D00C0C948C000C94740E0C94C60E72
:100050000C948C000C948C000C948C000C948C00F0
:100060000C9441080C948C00000000002400270030
:100070002A0000000000250028002B0000000000DE
:1000800023002600290004040404040404040202DA
:100090000202020203030303030301020408102007
:1000A0004080010204081020010204081020000012
:1000B0000007000201000003040600000000000029
:1000C00000008E00DD06351011241FBECFEFD8E0F2
:1000D000DEBFCDBF11E0A0E0B1E0EAE3F5E202C08F
:1000E00005900D92A23FB107D9F713E0A2EFB1E05E
:1000F00001C01D92A53FB107E1F710E0C8ECD0E0C8
:1001000004C02297FE010E949712C23CD107C9F792
:100110000E948C100C949B120C94000082EF91E0D2
:1001200060E540E850E00E94050C85E492E00E9402
:10013000F00988E492E00E94F0098BE492E00E94CA
:10014000F0098EE492E00E94F0090895CF93DF93C6
:10015000EC016115710519F420E030E00FC0DB01FE
:100160000D900020E9F71197A61BB70BE881F981E4
:100170000280F381E02DAD0109959C01C901DF9159
:10018000CF910895CF93DF93C9E0D2E006C083ED0D
:1001900093E00E94BC0F8993999383ED93E00E94B2
:1001A000880F181619069CF38091090290910A0293
:1001B0008235910541F08735910539F18D349105EE
:1001C00009F0BBC051C080910B0290910C028F349A
:1001D000910509F0B6C080910D0290910E0286340F
:1001E000910509F0AEC080910F0290911002833406
:1001F000910509F0A6C08091110290911202CA9750
:1002000009F09FC081E090E093C080910B02909133
:100210000C028F34910509F094C080910D029091E9
:100220000E028634910509F08CC080910F029091E6
:1002300010028334910509F084C0809111029091DD
:100240001202CA9709F07DC08091130290911402A6
:100250008133910519F482E090E06AC0C29709F0F9
:1002600070C086E190E064C080910B0290910C0216
:1002700089339105C9F480910D0290910E02C097C7
:1002800009F05FC080910F029091100283349105B4
:1002900009F057C08091110290911202CA9709F09B
:1002A00050C083E090E044C088349105C1F480914F
:1002B0000D0290910E028F34910509F042C0809199
:1002C0000F029091100283349105D9F580911102AB
:1002D00090911202CA97A9F584E090E029C0833575
:1002E000910579F580910D0290910E02833591056B
:1002F00089F580910F02909110028334910509F5E0
:100300008091110290911202CA97D9F485E090E091
:100310000FC080910F02909110028334910589F4EF
:100320008091110290911202CA9759F486E090E0F0
:100330009093FA018093F90104C01092FA0110928F
:10034000F90181E090E09093FE018093FD01DF913F
:10035000CF91089588379105E1F2F3CFCF93DF93E2
:1003600083ED93E00E94880F892B21F080E090E0DC
:100370000E94C2008091FD019091FE01019709F059
:100380006DC483ED93E060E071E00E94AA1160917A
:10039000F9017091FA0183ED93E04AE050E00E9488
:1003A0008B11C091F901D091FA01C430D10509F443
:1003B0007EC1C530D1056CF4C230D10509F478C0D6
:1003C000C330D1050CF056C1C130D10509F0ECC2E3
:1003D0000CC0C630D10509F480C2C630D1050CF47A
:1003E000B9C1669709F0E0C2D0C06091BD017091BB
:1003F000BE0181E493E00E94F20B809351021092BF
:1004000052026091590270915A0281E493E00E9475
:10041000F20B80935502109256026091BF017091C9
:10042000C00181E493E00E94F20B8093530210928A
:1004300054026091BB017091BC0181E493E00E9481
:10044000F20B809357021092580283ED93E06AE01A
:1004500071E00E94AA11609151027091520283EDE5
:1004600093E04AE050E00E948B1160915502709138
:10047000560283ED93E04AE050E00E948B116091B8
:1004800053027091540283ED93E04AE050E00E94E1
:100490008B11609157027091580283ED93E04AE00E
:1004A00050E00E948B11D093FC01C093FB0182C2EB
:1004B0006091190270911A02605D74418091150279
:1004C00090911602E4E6F0E09C012E9FC0012F9F60
:1004D000900D3E9F900D1124680F791F8091170297
:1004E000909118029C01B3E0220F331FBA95E1F7F7
:1004F000880F991F280F391F620F731F40911F0229
:1005000050912002405D544180911B0290911C0249
:100510009C012E9FC0012F9F900D3E9F900D112496
:10052000480F591F80911D0290911E029C01F3E01B
:10053000220F331FFA95E1F7880F991F280F391FF3
:10054000420F531F6A557040709300026093FF0181
:100550004A55504050930202409301026091BF01FE
:100560007091C00181E493E00E94F90B6EE170E0AC
:1005700080E090E00E944C0D6091BB017091BC0145
:1005800081E493E04091FF016CC060911902709189
:100590001A02605D74418091150290911602E4E6A2
:1005A000F0E0AC014E9FC0014F9F900D5E9F900DFB
:1005B0001124680F791F80911702909118029C01F5
:1005C000B3E0220F331FBA95E1F7880F991F280F68
:1005D000391F620F731F40911F0250912002405D2E
:1005E000544180911B0290911C029C012E9FC001DE
:1005F0002F9F900D3E9F900D1124480F591F809101
:100600001D0290911E029C01F3E0220F331FFA9508
:10061000E1F7880F991F280F391F420F531F6A55A2
:10062000704070930402609303024A555040509307
:100630000602409305026091BD017091BE0181E404
:1006400093E00E94F90B6EE170E080E090E00E9480
:100650004C0D6091590270915A0281E493E04091EF
:1006600003020E94F90B6EE170E080E090E00E94CE
:100670004C0DA0C185E492E06AE570E00E94460A54
:1006800088E492E06AE570E00E94460A8BE492E01A
:100690006AE570E00E94460A8EE492E06AE570E046
:1006A0000E94460A83ED93E060E271E081C16091AF
:1006B000BD017091BE0181E493E00E94F20B809332
:1006C0005102109252026091590270915A0281E4D3
:1006D00093E00E94F20B80935502109256026091B3
:1006E000BF017091C00181E493E00E94F20B8093FE
:1006F0005302109254026091BB017091BC0181E4DD
:1007000093E00E94F20B682F8093570210925802D8
:1007100085E492E070E00E94460A60915502709173
:10072000560288E492E00E94460A6091530270915A
:1007300054028BE492E00E94460A6091510270914B
:1007400052028EE492E00E94460A83ED93E065E255
:1007500071E02EC16091190270911A02605D7441BE
:100760008091150290911602E4E6F0E0AC014E9FF4
:10077000C0014F9F900D5E9F900D1124680F791F4F
:1007800080911702909118029C0153E0220F331FB1
:100790005A95E1F7880F991F280F391F620F731FB1
:1007A000709300026093FF0140911F02509120025C
:1007B000405D544180911B0290911C029C012E9F30
:1007C000C0012F9F900D3E9F900D1124480F591F7F
:1007D00080911D0290911E029C01B3E0220F331FF5
:1007E000BA95E1F7880F991F280F391F420F531F41
:1007F000509302024093010240912502509126023B
:10080000405D544180912102909122029C012E9FD3
:10081000C0012F9F900D3E9F900D1124480F591F2E
:1008200080912302909124029C01B3E0220F331F98
:10083000BA95E1F7880F991F280F391F420F531FF0
:10084000509304024093030240912B0250912C02DA
:10085000405D544180912702909128029C012E9F77
:10086000C0012F9F900D3E9F900D1124480F591FDE
:100870008091290290912A029C01F3E0220F331FFC
:10088000FA95E1F7880F991F280F391F420F531F60
:10089000509306024093050285E492E00E94460AC6
:1008A00060910102709102028BE492E00E94460A7C
:1008B000609103027091040288E492E00E94460A6B
:1008C00060910502709106028EE492E00E94460A51
:1008D00083ED93E06CE271E06BC06091190270915E
:1008E0001A02605D7441209115023091160284E66F
:1008F00090E0AC01249FC001259F900D349F900D86
:100900001124680F791F80911702909118029C01A1
:1009100053E0220F331F5A95E1F7880F991F280FD4
:10092000391F620F731F7093080260930702809152
:10093000130290911402C09782309105A9F0833080
:1009400091051CF4019759F506C083309105A9F073
:10095000049729F51BC085E492E00E94460A83EDC6
:1009600093E06DE371E024C08BE492E00E94460ABC
:1009700083ED93E060E571E01BC088E492E00E94A3
:10098000460A83ED93E063E671E012C08EE492E0E4
:100990000E94460A83ED93E066E771E009C083EDAB
:1009A00093E069E871E004C083ED93E06DE971E0E4
:1009B0000E94AA1183ED93E069EA71E00E94AA11F6
:1009C0006091090270910A0283ED93E04AE050E0E1
:1009D0000E948B1160910B0270910C0283ED93E0E9
:1009E0004AE050E00E948B1160910D0270910E025E
:1009F00083ED93E04AE050E00E948B1160910F027A
:100A00007091100283ED93E04AE050E00E948B1158
:100A1000609111027091120283ED93E04AE050E080
:100A20000E948B11609113027091140283ED93E088
:100A30004AE050E00E948B116091150270911602FD
:100A400083ED93E04AE050E00E948B116091170221
:100A50007091180283ED93E04AE050E00E948B1100
:100A60006091190270911A0283ED93E04AE050E020
:100A70000E948B1160911B0270911C0283ED93E028
:100A80004AE050E00E948B1160911D0270911E029D
:100A900083ED93E04AE050E00E948B1160911F02C9
:100AA0007091200283ED93E04AE050E00E948B11A8
:100AB000609121027091220283ED93E04AE050E0C0
:100AC0000E948B11609123027091240283ED93E0C8
:100AD0004AE050E00E948B1160912502709126023D
:100AE00083ED93E04AE050E00E948B116091270271
:100AF0007091280283ED93E04AE050E00E948B1150
:100B00006091290270912A0283ED93E04AE050E05F
:100B10000E948B1160912B0270912C0283ED93E067
:100B20004AE050E00E948B1160912D0270912E02DC
:100B300083ED93E04AE050E00E948B1160912F0218
:100B40007091300283ED93E04AE050E00E948B11F7
:100B5000609131027091320283ED93E04AE050E0FF
:100B60000E948B111092FE011092FD0110920A0258
:100B70001092090210920C0210920B0210920E02B7
:100B800010920D021092100210920F021092120297
:100B90001092110210921402109213021092160277
:100BA00010921502109218021092170210921A0257
:100BB0001092190210921C0210921B0210921E0237
:100BC00010921D021092200210921F021092220217
:100BD00010922102109224021092230210922602F7
:100BE00010922502109228021092270210922A02D7
:100BF0001092290210922C0210922B0210922E02B7
:100C000010922D021092300210922F021092320296
:100C10001092310210923402109233021092360276
:100C200010923502109238021092370210923A0256
:100C30001092390210923C0210923B0210923E0236
:100C400010923D021092400210923F021092420216
:100C500010924102109244021092430264E670E046
:100C600080E090E00E944C0DDF91CF9108950F93AA
:100C70001F93CF93DF9383ED93E040E052EC61E06C
:100C800070E00E94010F88E492E062E070E00E9450
:100C90002D0B85E492E063E070E00E942D0B8EE462
:100CA00092E064E070E00E942D0B8BE492E065E03E
:100CB00070E00E942D0B6EE170E080E090E00E94F9
:100CC0004C0D6091C1017091C20181E493E044E256
:100CD0000E94F90B6EE170E080E090E00E944C0D04
:100CE0006091C3017091C40181E493E04FEF0E94D1
:100CF000F90B6EE170E080E090E00E944C0D82EF15
:100D000091E00E943A0C0BEC11E0C0E0D0E009C089
:100D100082EF91E0BE010E94C00CF80181938F0127
:100D200021968091B9019091BA01C817D90784F32F
:100D300083ED93E065EC71E00E94A600DF91CF9116
:100D40001F910F91089581E08093A00260937D022E
:100D500010929E0210929F02089520917C0230E032
:100D600080917B02281B3109C901089540917B02C3
:100D700080917C02481718F02FEF3FEF0AC0E42F54
:100D8000F0E0E55AFD4F8081282F30E04F5F40931F
:100D90007B02C9010895E0917B0280917C02E817F3
:100DA00018F0EFEFFFEF06C0F0E0E55AFD4F80814D
:100DB000E82FF0E0CF01089508951092A402109258
:100DC000A30288EE93E0A0E0B0E08093A5029093A8
:100DD000A602A093A702B093A80286ED91E090939B
:100DE000A2028093A1020895CF92DF92EF92FF9228
:100DF0000F931F93CF93DF937C016B018A01809146
:100E0000A0028823A1F0C0E0D0E00DC0D701ED9191
:100E1000FC91D601AC0FBD1F0190F081E02DC70100
:100E20006C9109952196C017D10780F304C0CB01BE
:100E3000642F0E942608C801DF91CF911F910F9166
:100E4000FF90EF90DF90CF900895DF93CF930F92B4
:100E5000CDB7DEB7FC0169838091A0028823C9F079
:100E600080919F02803238F081E090E0938382830A
:100E700020E030E015C080919E02E82FF0E0E258BB
:100E8000FD4F998190838F5F80939E0280939F0294
:100E900005C0CE01019661E00E94260821E030E005
:100EA000C9010F90CF91DF9108950F93062F809184
:100EB0007D026EE772E040919F0221E00E94D1071F
:100EC00010929E0210929F021092A0020F9108951C
:100ED00061E00E9455070895413208F040E2862FF4
:100EE0006BE572E00E94880710927B0280937C027F
:100EF000089521E00E946C07089510927B021092E1
:100F00007C0210929E0210929F020E94D2090895C4
:100F1000382F413210F040E042C08091AD0288236A
:100F2000E1F791E09093AD022093AF028FEF8093B1
:100F30001A031092D50241504093D6024F5F90930E
:100F4000AE028091AE02330F832B8093AE0280916C
:100F5000B002813041F41092B0028091AE028093D1
:100F6000BB0085EC01C085EE8093BC008091AD0292
:100F70008130E1F38091D502841710F44091D502BD
:100F800020E030E00AC0FB01E20FF31FD901AB54AF
:100F9000BD4F8C9180832F5F3F4F2417A0F3842F88
:100FA00008950F931F93582F122F413210F081E0B4
:100FB0004AC08091AD028823E1F782E08093AD02C0
:100FC0000093AF028FEF80931A031092D5024093E3
:100FD000D602A5EBB2E0FB0102C081918D938E2F6A
:100FE000861B8417D0F31092AE028091AE02550F8B
:100FF000852B8093AE028091B002813041F4109233
:10100000B0028091AE028093BB0085EC01C085EEFA
:101010008093BC00112321F08091AD028230E1F376
:1010200080911A038F3F11F480E00DC080911A0364
:10103000803211F482E007C080911A03803311F0EE
:1010400084E001C083E01F910F910895482F613221
:1010500010F081E008958091AD02843011F082E0BB
:1010600008956093F802A7EDB2E0842F9C01F90186
:1010700002C081918D938E2F841B8617D0F380E060
:1010800008951F920F920FB60F9211242F933F9342
:101090004F935F936F937F938F939F93AF93BF9380
:1010A000EF93FF938091B90090E0887F9070803635
:1010B000910509F4F2C081369105CCF5883291058D
:1010C00009F47BC089329105B4F48031910509F4AB
:1010D0006FC0813191053CF4009709F447C108972E
:1010E00009F04FC165C08831910509F466C0809749
:1010F00009F047C182C08034910509F4A4C081344D
:10110000910544F48033910509F482C0C89709F031
:1011100038C189C08035910509F489C088359105A9
:1011200009F496C08834910509F02BC1AEC0883906
:10113000910509F413C189399105ECF488379105BB
:1011400009F4ABC0893791054CF48836910509F450
:10115000A4C08037910509F014C19FC0883891055B
:1011600009F4FCC08039910509F49DC080389105CF
:1011700009F007C198C0803B910509F4C6C0813BC6
:1011800091054CF4803A910509F49FC0883A910585
:1011900009F0F7C0BAC0803C910509F4E3C0883C6F
:1011A000910509F4DFC0883B910509F0EAC0C2C08F
:1011B0008091AE028093BB00CFC09091D502809108
:1011C000D602981768F49091D502E92FF0E0EB541D
:1011D000FD4F80818093BB009F5F9093D502BCC080
:1011E0008091AF02882309F44BC085ED8093BC0049
:1011F0008091BC0084FDFCCFC2C080E280931A03C2
:1012000085ED8093BC008091BC0084FDFCCFB7C00D
:1012100080E380931A0385ED8093BC008091BC002D
:1012200084FDFCCFACC088E380931A039BC08091FF
:10123000D5029091BB00E82FF0E0EB54FD4F908376
:101240008F5F8093D5029091D5028091D60282C0A3
:101250008091D5029091BB00E82FF0E0EB54FD4F58
:1012600090838F5F8093D5028091AF02882341F0F5
:1012700085ED8093BC008091BC0084FDFCCF7FC0D5
:1012800081E08093B00284EA6EC085ED8093BC005B
:101290008091BC0084FDFCCF72C083E08093AD02DE
:1012A0001092190359C080911903803208F056C07A
:1012B000809119039091BB00E82FF0E0E750FD4FBB
:1012C00090838F5F8093190347C080911903803208
:1012D00030F4E0911903F0E0E750FD4F108285ED06
:1012E0008093BC008091BC0084FDFCCF1092AD02C5
:1012F00060911903E091B302F091B40289EF92E09A
:1013000070E00995109219032DC084E08093AD021E
:101310001092F7021092F802E091B102F091B2023D
:1013200009958091F802882329F481E08093F802DE
:101330001092D7029091F702E92FF0E0E952FD4FA9
:1013400080818093BB009F5F9093F7029091F7029A
:101350008091F802981710F485EC01C085E880931D
:10136000BC000FC085EC8093BC0009C010921A032A
:1013700085ED8093BC008091BC0084FDFCCF109271
:10138000AD02FF91EF91BF91AF919F918F917F91AE
:101390006F915F914F913F912F910F900FBE0F90E2
:1013A0001F9018951092AD0281E08093AF021092C9
:1013B000B00282E161E00E941F0E83E161E00E94C1
:1013C0001F0EE9EBF0E080818E7F808380818D7F2E
:1013D000808388E48093B80085E48093BC000895FE
:1013E000FC0180911B038C3090F480838F5F80938D
:1013F0001B03815090E0FC01EE0FFF1FE80FF91F67
:10140000E45EFC4F88EB9BE09283818308958FEF2D
:1014100080830895FC0120812C30B8F581819927C3
:1014200087FD909548E850E0481B590B440F551F25
:10143000440F551F6417750784F08281992787FD33
:10144000909548E552E0481B590B440F551F440F37
:10145000551F641775070CF4AB0142505040CA0188
:10146000AA2797FDA095BA2F880F991FAA1FBB1F07
:101470004FB7F89430E0F901EE0FFF1FE20FF31FB2
:10148000E45EFC4F928381834FBF0895AF92BF9279
:10149000CF92DF92EF92FF920F931F93CF93DF9340
:1014A000EC019B0182E0603278070CF048C077FFC6
:1014B00003C020E030E005C0653B710514F024EB6B
:1014C00030E000D000D0B901882777FD8095982FB3
:1014D0002981332727FD3095E8E8AE2EB12CA21ADA
:1014E000B30AAA0CBB1CAA0CBB1CCC24B7FCC0942E
:1014F000DC2CEA81FF27E7FDF09528E532E02E1B82
:101500003F0B220F331F220F331F442737FD409517
:10151000542FEDB7FEB7218332834383548320E0F9
:1015200030E040E050E004EBE02EF12C012D112DD5
:101530000E94BD119B010F900F900F900F90CE0154
:10154000B9010E940A0ADF91CF911F910F91FF907C
:10155000EF90DF90CF90BF90AF900895CF92DF9241
:10156000EF92FF921F93CF93DF93EC01162F7A0136
:10157000690188818C3008F064C0862F61E00E9488
:10158000E00D888190E0FC01EE0FFF1FE80FF91FCE
:10159000E45EFC4F1F738081807C812B808380E21E
:1015A00092E08E199F0964E070E00E944512698301
:1015B00080E699E08C199D0964E070E00E94451274
:1015C0006A83A8818A2F6CE00E942512682F70E040
:1015D000AB01440F551F460F571F440F551F440FB3
:1015E000551F20E030E0C901840F951FFC01EE0F6C
:1015F000FF1FE80FF91FE45EFC4F808186FD15C0D8
:101600002F5F3F4F2C30310571F724C010928000BE
:1016100082E0809381001092850010928400B19A3C
:1016200080916F00826080936F008A2F90E0FC01B0
:10163000EE0FFF1FE80FF91FE45EFC4F808180640E
:1016400080838881DF91CF911F91FF90EF90DF9091
:10165000CF900895672BD1F2E8CF40E252E020E628
:1016600039E00E94AE0A08951F920F920FB60F92B2
:1016700011242F933F934F935F936F937F938F9397
:101680009F93AF93BF93EF93FF938091400387FFA6
:1016900005C010928500109284002BC02091400359
:1016A000332727FD309580911B0390E028173907D9
:1016B00004F580914003992787FD9095FC01EE0F7A
:1016C000FF1FE80FF91FE45EFC4F808186FF11C009
:1016D00080914003992787FD9095FC01EE0FFF1F35
:1016E000E80FF91FE45EFC4F80818F7360E00E9479
:1016F0001F0E809140038F5F809340032091400331
:10170000332727FD309580911B0390E02817390778
:101710000CF04EC0809140038C300CF049C02091F9
:1017200084003091850080914003992787FD909532
:10173000FC01EE0FFF1FE80FF91FE45EFC4F8181F3
:101740009281280F391F309389002093880080915F
:101750004003992787FD9095FC01EE0FFF1FE80FCE
:10176000F91FE45EFC4F808186FF2BC0809140030F
:10177000992787FD9095FC01EE0FFF1FE80FF91FD9
:10178000E45EFC4F80818F7361E00E941F0E19C0E0
:1017900080E49CE905C080918400909185000496C6
:1017A00090938900809388008FEF8093400309C055
:1017B0008091840090918500049680549C4940F368
:1017C000EACFFF91EF91BF91AF919F918F917F9160
:1017D0006F915F914F913F912F910F900FBE0F909E
:1017E0001F901895F999FECF72BD61BDF89A80B52A
:1017F0000895F999FECF1FBA72BD61BD40BD0FB605
:10180000F894FA9AF99A0FBE0895FC01608381E07A
:101810004130580718F4168288E009C041505840FA
:1018200018F4168280E103C081E0868380E285831C
:101830000895CF93DF93EC010BC081EA92E06881B9
:101840000E94A30681EA92E00E946807882379F04B
:101850000E94260D29813A814B815C81621B730BAA
:10186000840B950B695873418040904030F3DF91B1
:10187000CF9108950F931F938C0181EA92E00E940B
:101880007D07F801118212821382148288E480930A
:10189000B8001F910F9108950F931F93CF93DF937B
:1018A0008C01EB0181EA92E0F80160810E94A306BD
:1018B000F8018681882329F081EA92E06D2F0E9449
:1018C0002507D07081EA92E06C2F0E942507DF91F6
:1018D000CF911F910F9108959F92AF92BF92CF9297
:1018E000DF92EF92FF920F931F93CF93DF93EC0160
:1018F0008B01B42EA52E922E0E94190CCE01B80198
:101900000E944C0C81EA92E00E946807882351F5FE
:1019100081EA92E06881492D0E9479070E94180DA2
:101920006B017C018B2D9A2D9C01E90100E006C022
:1019300081EA92E00E94B60689930F5F091598F438
:101940000E94180D6C197D098E099F09685E73400D
:101950008040904040F481EA92E00E94AD06892BDD
:1019600079F3E6CF00E0802FDF91CF911F910F91A7
:10197000FF90EF90DF90CF90BF90AF909F90089531
:10198000DF93CF930F92CDB7DEB7AE014F5F5F4FBE
:1019900021E00E946C0C89810F90CF91DF91089516
:1019A0001F920F920FB60F9211242F933F938F9394
:1019B0009F93AF93BF938091460390914703A0916B
:1019C0004803B091490330914A030196A11DB11D0E
:1019D000232F2D5F2D3720F02D570196A11DB11D0E
:1019E00020934A038093460390934703A0934803B0
:1019F000B09349038091420390914303A091440323
:101A0000B09145030196A11DB11D809342039093AF
:101A10004303A0934403B0934503BF91AF919F91BB
:101A20008F913F912F910F900FBE0F901F9018959F
:101A30008FB7F894209146033091470340914803B3
:101A4000509149038FBFB901CA0108959FB7F89417
:101A50002091420330914303409144035091450348
:101A600086B5A89B06C08F3F21F02F5F3F4F4F4F99
:101A70005F4F9FBF542F432F322F2227280F311D36
:101A8000411D511D82E0220F331F441F551F8A95AF
:101A9000D1F7B901CA0108959B01AC017FB7F89451
:101AA0008091420390914303A0914403B091450378
:101AB00066B5A89B05C06F3F19F00196A11DB11D29
:101AC0007FBFBA2FA92F982F8827860F911DA11DA0
:101AD000B11D62E0880F991FAA1FBB1F6A95D1F73D
:101AE000BC012DC0FFB7F89480914203909143034D
:101AF000A0914403B0914503E6B5A89B05C0EF3F14
:101B000019F00196A11DB11DFFBFBA2FA92F982F63
:101B100088278E0F911DA11DB11DE2E0880F991F2E
:101B2000AA1FBB1FEA95D1F7861B970B885E9340CF
:101B3000C8F2215030404040504068517C4F211540
:101B400031054105510571F60895789484B5826098
:101B500084BD84B5816084BD85B5826085BD85B551
:101B6000816085BDEEE6F0E0808181608083E1E800
:101B7000F0E0108280818260808380818160808338
:101B8000E0E8F0E0808181608083E1EBF0E080813B
:101B900084608083E0EBF0E0808181608083EAE70D
:101BA000F0E0808184608083808182608083808196
:101BB000816080838081806880831092C100089555
:101BC000CF93DF93482F50E0CA0186569F4FFC0108
:101BD00034914A575F4FFA018491882369F190E06C
:101BE000880F991FFC01E859FF4FA591B491FC01A2
:101BF000EE58FF4FC591D491662351F42FB7F89456
:101C00008C91932F909589238C93888189230BC085
:101C1000623061F42FB7F8948C91932F90958923BB
:101C20008C938881832B88832FBF06C09FB7F8943D
:101C30008C91832B8C939FBFDF91CF910895482F78
:101C400050E0CA0182559F4FFC012491CA0186567B
:101C50009F4FFC0194914A575F4FFA01349133230F
:101C600009F440C0222351F1233071F0243028F4CC
:101C70002130A1F0223011F514C02630B1F0273008
:101C8000C1F02430D9F404C0809180008F7703C064
:101C9000809180008F7D8093800010C084B58F7705
:101CA00002C084B58F7D84BD09C08091B0008F775C
:101CB00003C08091B0008F7D8093B000E32FF0E0EF
:101CC000EE0FFF1FEE58FF4FA591B4912FB7F89478
:101CD000662321F48C919095892302C08C91892BE5
:101CE0008C932FBF089508951F920F920FB60F92F5
:101CF00011242F933F934F938F939F93EF93FF93D1
:101D00008091C00082FD1DC04091C60020918B03D0
:101D100030918C032F5F3F4F2F73307080918D0374
:101D200090918E032817390771F0E0918B03F091A1
:101D30008C03E55BFC4F408330938C0320938B0333
:101D400002C08091C600FF91EF919F918F914F91BA
:101D50003F912F910F900FBE0F901F901895E0911B
:101D6000DF03F091E003E05CFF4F819191912081CE
:101D70003181805C9F4F821B930B60E470E00E9476
:101D80004512892B11F00E94730E08951F920F9235
:101D90000FB60F9211242F933F938F939F93EF933E
:101DA000FF932091CF033091D0038091D103909184
:101DB000D2032817390731F48091C1008F7D8093B9
:101DC000C10014C0E091D103F091D203E157FC4F60
:101DD00020818091D1039091D20301968F739070EE
:101DE0009093D2038093D1032093C600FF91EF918B
:101DF0009F918F913F912F910F900FBE0F901F9049
:101E00001895AF92BF92DF92EF92FF920F931F93BC
:101E1000CF93DF93EC017A018B01DD24403081EE1A
:101E2000580780E0680780E0780711F0DD24D3943C
:101E300091E0A92EB12CEC89FD89DD2069F0C50166
:101E400008A002C0880F991F0A94E2F7808360E01F
:101E500079E08DE390E005C0108260E874E88EE1DF
:101E600090E0A80197010E94581221503040404054
:101E70005040569547953795279580E12030380793
:101E800020F0DD2011F0DD24D6CFE889F9893083F8
:101E9000EA89FB89208319A2EE89FF89408121E02C
:101EA00030E0C9010C8C02C0880F991F0A94E2F738
:101EB000482B4083EE89FF894081C9010D8C02C007
:101EC000880F991F0A94E2F7482B4083EE89FF8917
:101ED0004081C9010E8C02C0880F991F0A94E2F755
:101EE000482B4083EE89FF8980810F8C02C0220F2E
:101EF000331F0A94E2F7209528232083DF91CF91A6
:101F00001F910F91FF90EF90DF90BF90AF900895D9
:101F1000DC011C96ED91FC911D97E05CFF4F8191D7
:101F2000919120813181805C9F4F821B930B60E4F3
:101F300070E00E9445120895DC011C96ED91FC9121
:101F40001D97E05CFF4F20813181E054F040DF01BC
:101F5000AE5BBF4F8D919C9111972817390719F4EB
:101F60002FEF3FEF07C08D919C91E80FF91F808103
:101F7000282F30E0C9010895DC011C96ED91FC91F9
:101F80001D97E05CFF4F20813181E054F040DF017C
:101F9000AE5BBF4F8D919C9111972817390719F4AB
:101FA0002FEF3FEF10C08D919C911197E80FF91F13
:101FB00020818D919C91119701968F73907011964D
:101FC0009C938E9330E0C9010895DC0191968C9129
:101FD0009197882339F05496ED91FC915597808123
:101FE00086FFF9CF91961C920895CF93DF93EC0171
:101FF000EE85FF85E05CFF4F20813181E054F040A9
:102000002F5F3F4F2F733070DF01AE5BBF4F8D915D
:102010009C91119728173907D1F3E05CFF4F80811D
:102020009181E054F040E80FF91F6083EE85FF8551
:10203000E05CFF4F31832083EE89FF89208181E0BE
:1020400090E00F8C02C0880F991F0A94E2F7282BAA
:10205000208381E089A3EC89FD898081806480836D
:1020600081E090E0DF91CF9108951092D603109215
:10207000D50388EE93E0A0E0B0E08093D70390937F
:10208000D803A093D903B093DA0386EE91E090933E
:10209000D4038093D3038BE493E09093E003809385
:1020A000DF038FE893E09093E2038093E10385ECF4
:1020B00090E09093E4038093E30384EC90E09093AA
:1020C000E6038093E50380EC90E09093E80380932F
:1020D000E70381EC90E09093EA038093E90382ECBC
:1020E00090E09093EC038093EB0386EC90E0909368
:1020F000EE038093ED0384E08093EF0383E080930D
:10210000F00387E08093F10385E08093F20381E0A0
:102110008093F30308950895CF93DF930E94A50D54
:102120000E948B100E943706CFEADEE00E94AE01CB
:102130002097E1F30E94AF0EF9CFCF92DF92EF929A
:10214000FF920F931F93CF93DF937C016B018A0162
:10215000C0E0D0E00FC0D6016D916D01D701ED91C7
:10216000FC910190F081E02DC7010995C80FD91F9E
:10217000015010400115110571F7CE01DF91CF918B
:102180001F910F91FF90EF90DF90CF900895EF9205
:10219000FF920F931F938C01DC01ED91FC91019054
:1021A000F081E02D6DE009957C01D801ED91FC9165
:1021B0000190F081E02DC8016AE009959C012E0D87
:1021C0003F1DC9011F910F91FF90EF9008954F920D
:1021D0005F927F928F929F92AF92BF92CF92DF9247
:1021E000EF92FF920F931F93DF93CF93CDB7DEB79C
:1021F000A1970FB6F894DEBF0FBECDBF2C01742E91
:10220000CB01223008F42AE019A231E2C32ED12CEE
:10221000CC0EDD1E822E9924AA24BB24672D752F97
:10222000A50194010E94581279018A01C801B701E1
:10223000A50194010E940612472D461B0894C1086F
:10224000D1084A3014F4405D01C0495CF601408376
:10225000E114F1040105110521F07E2C5F2DC80168
:10226000DDCFC201B6010E94A600A1960FB6F89478
:10227000DEBF0FBECDBFCF91DF911F910F91FF90B9
:10228000EF90DF90CF90BF90AF909F908F907F9016
:102290005F904F900895CF92DF92EF92FF920F934D
:1022A0001F93CF93DF93EC016A017B012115310568
:1022B00041F4E881F9810190F081E02D642F0995C6
:1022C0001FC02A303105D1F477FF17C0E881F981AA
:1022D0000190F081E02D6DE209958C01442755278E
:1022E000BA014C195D096E097F09CE012AE00E94EE
:1022F000E7109801280F391F04C02AE00E94E71058
:102300009C01C901DF91CF911F910F91FF90EF9038
:10231000DF90CF900895CF92DF92EF92FF920F93CC
:102320001F936C017B019A010027F7FC0095102F89
:10233000B801A7010E944B118C01C6010E94C71071
:10234000080F191FC8011F910F91FF90EF90DF90A8
:10235000CF900895EF92FF920F931F937C010E94FC
:10236000A6008C01C7010E94C710080F191FC801E1
:102370001F910F91FF90EF9008952F923F924F92EF
:102380005F926F927F928F929F92AF92BF92CF9205
:10239000DF92EF92FF920F931F93DF93CF93CDB70E
:1023A000DEB73B014C0119012A016D897E898F89B5
:1023B000988D6A197B098C099D09621A730A840A2F
:1023C000950AA40193010E940612E218F308040979
:1023D0001509A80197010E947A122A0D3B1D4C1D78
:1023E0005D1DB901CA01CF91DF911F910F91FF903F
:1023F000EF90DF90CF90BF90AF909F908F907F90A5
:102400006F905F904F903F902F900895629FD00102
:10241000739FF001829FE00DF11D649FE00DF11D9F
:10242000929FF00D839FF00D749FF00D659FF00D4E
:102430009927729FB00DE11DF91F639FB00DE11D3B
:10244000F91FBD01CF0111240895991B79E004C043
:10245000991F961708F0961B881F7A95C9F78095E3
:102460000895AA1BBB1B51E107C0AA1FBB1FA617DB
:10247000B70710F0A61BB70B881F991F5A95A9F72D
:1024800080959095BC01CD01089597FB092E0726F4
:102490000AD077FD04D0E5DF06D000201AF470954D
:1024A00061957F4F0895F6F7909581959F4F089518
:1024B000A1E21A2EAA1BBB1BFD010DC0AA1FBB1F48
:1024C000EE1FFF1FA217B307E407F50720F0A21BBA
:1024D000B30BE40BF50B661F771F881F991F1A9427
:1024E00069F760957095809590959B01AC01BD0151
:1024F000CF01089597FB092E05260ED057FD04D075
:10250000D7DF0AD0001C38F45095409530952195BE
:102510003F4F4F4F5F4F0895F6F790958095709518
:1025200061957F4F8F4F9F4F0895EE0FFF1F0590CE
:0A253000F491E02D0994F894FFCF18
:10253A00526563696269646F3A00484F4D45206C81
:10254A006569646F20646520454550524F4D3A00D5
:10255A0041203930004120484F4D4500546F646F87
:10256A0073204120504F53206461646100436164C9
:10257A005F646572204120504F532064616461009A
:10258A007069655F646572204120504F5320646111
:10259A006461004361645F697A71204120504F533E
:1025AA002064616461007069655F697A7120412005
:1025BA00504F5320646164610053656C65636369BD
:1025CA006F6E20736572766F204E4F4B00436F6DAE
:1025DA00616E646F204E4F4B005472616D612072C0
:1025EA00656369626964613A0006000100020003DA
:1025FA000005002A00244F4B4E533A000000000009
:10260A000023000000002507F406AD06B606CB0637
:10261A00DC0600000000F50F9D10880FBC0F9C0F10
:02262A00E50FBA
:00000001FF
